{
  "contractName": "Funder",
  "abi": [
    {
      "inputs": [],
      "name": "numOfFunders",
      "outputs": [
        {
          "internalType": "uint256",
          "name": "",
          "type": "uint256"
        }
      ],
      "stateMutability": "view",
      "type": "function",
      "constant": true
    },
    {
      "stateMutability": "payable",
      "type": "receive",
      "payable": true
    },
    {
      "inputs": [],
      "name": "transfer",
      "outputs": [],
      "stateMutability": "payable",
      "type": "function",
      "payable": true
    },
    {
      "inputs": [
        {
          "internalType": "uint256",
          "name": "withdrawAmount",
          "type": "uint256"
        }
      ],
      "name": "withdraw",
      "outputs": [],
      "stateMutability": "nonpayable",
      "type": "function"
    }
  ],
  "bytecode": "0x608060405234801561001057600080fd5b50610199806100206000396000f3fe6080604052600436106100385760003560e01c80632e1a7d4d146100445780638a4068dd14610066578063af7f2c9b1461008a57600080fd5b3661003f57005b600080fd5b34801561005057600080fd5b5061006461005f36600461014a565b6100b2565b005b61006460008054815260016020526040902080546001600160a01b03191633179055565b34801561009657600080fd5b506100a060005481565b60405190815260200160405180910390f35b671bc16d674ec800008111156101195760405162461bcd60e51b815260206004820152602260248201527f43616e6e6f74207769746864726177206d6f7265207468616e20322065746865604482015261727360f01b606482015260840160405180910390fd5b604051339082156108fc029083906000818181858888f19350505050158015610146573d6000803e3d6000fd5b5050565b60006020828403121561015c57600080fd5b503591905056fea26469706673582212205741e5b74a4d5521b75d5ca905303d4ad72689716e8283a473621063bee0b36664736f6c63430008110033",
  "immutableReferences": {},
  "source": "//SPDX-License_Identifier: MIT\n//pragma solidity >=0.4.22 <0.9.0;\npragma solidity >=0.8.0 <0.9.0;\n\ncontract Funder{\n    uint256 public numOfFunders;\n    mapping(uint=>address) private funders;\n\n    receive() external payable{}\n\n    function transfer() external payable{\n        funders[numOfFunders]=msg.sender;\n    }\n    function withdraw(uint withdrawAmount) external {\n        require(withdrawAmount <= 2000000000000000000, \"Cannot withdraw more than 2 ethers\");\n        payable(msg.sender).transfer(withdrawAmount);\n    }\n}",
  "sourcePath": "/Users/upendra/developer/blockchain/code eater/masteryPath/basicDapp/fund/contracts/funder.sol",
  "compiler": {
    "name": "solc",
    "version": "0.8.17+commit.8df45f5f.Emscripten.clang"
  },
  "schemaVersion": "3.4.10",
  "updatedAt": "2022-11-27T08:20:21.433Z",
  "networkType": "ethereum",
  "devdoc": {
    "kind": "dev",
    "methods": {},
    "version": 1
  },
  "userdoc": {
    "kind": "user",
    "methods": {},
    "version": 1
  }
}